:040000000BEF00F012
:100008004882FACF0AF0FBCF0BF01EED13F027EF72
:0200180016F0E0
:1006000000010000000A00000064000000E8030090
:100610000010270000A086010040420F008096983D
:100620000000E1F50500CA9A3B00803FCDCC3DD7E4
:10063000233C12833AB7D138C62737388635C0D61F
:1006400033CC2B32708930E7DB2EE53C1E42A20D05
:1006500000803F00204100C842007A44401C4650C0
:10066000C34724744997184BBCBE4C6B6E4E0315A0
:100670005079AD60F349712F654200803F72313F80
:10068000FE753E58633D951D3CC5AE3A79213994BF
:10069000803793A73556153400000000803FF0FFE7
:1006A000BEE2A93E8376BEAE2B3E3CC3BDD2133D17
:1006B00078D3BB3C04429F6A429001424DBB40EC60
:1006C000473E8E1FBB3C04425A8B420444429C4F1F
:1006D0004100803F25342E32660A00000101036F7D
:1006E00001010305D8A49FD1000E0001E36F000EA5
:1006F0000001E46F000E0001E56F000E0001E66FDF
:10070000630E0001E66501D076D1A5EC15F01AC0A4
:100710001FF11BC020F15FEC15F01AC021F11BC0C6
:1007200022F119EC15F01AC023F11BC024F123C1EA
:1007300020F024C121F013EC17F020C007F121C0F4
:1007400008F122C009F121C120F022C121F013ECEF
:1007500017F020C00AF121C00BF122C00CF1000EED
:100760000001906F000E0001916F400E0001926F2A
:1007700007C18DF008C18EF009C18FF00EEC0DF0AD
:100780008DC00DF18EC00EF18FC00FF1000E000173
:10079000906F000E0001916F400E0001926F0AC130
:1007A0008DF00BC18EF00CC18FF00EEC0DF08DC0F2
:1007B00010F18EC011F18FC012F10DC127F00EC1E2
:1007C00028F00FC129F010C124F011C125F012C189
:1007D00026F038EC0CF024C013F125C014F126C02B
:1007E00015F113C19EF014C19FF015C1A0F05AEC91
:1007F0000BF09EC078F09FC079F0A0C07AF01FC1C6
:1008000020F020C121F013EC17F020C075F021C0BA
:1008100076F022C077F08CEC0EF075C016F176C041
:1008200017F177C018F116C1B1F017C1B2F018C1B5
:10083000B3F064EC0AF0B1C019F1B2C01AF1B3C060
:100840001BF119C160F01AC161F01BC162F0770E93
:10085000F66E060EF76E0900F5CF63F00900F5CFCE
:1008600064F00A00F5CF65F0E3EC0DF060C0DAF05B
:1008700061C0DBF062C0DCF00001E651D8A413D007
:10088000DAC036F0DBC037F0DCC038F0DAC0E3F0B5
:10089000DBC0E4F0DCC0E5F0DAC004F1DBC005F158
:1008A000DCC006F1A2D0D3EC14F01AC025F11BC0B5
:1008B00026F1000E0001786F030E0001796F430EE0
:1008C00000017A6F120E0001636F830E0001646FE6
:1008D0003A0E0001656F25C120F026C121F013EC0E
:1008E00017F020C060F021C061F022C062F0E3EC9C
:1008F0000DF060C075F061C076F062C077F08CECEE
:100900000EF075C024F076C025F077C026F0E3C065
:1009100027F0E4C028F0E5C029F038EC0CF024C042
:1009200036F025C037F026C038F0DAC063F0DBC0FF
:1009300064F0DCC065F0000E276E800E286E3F0E5E
:10094000296EEAC020F0EBC021F0ECC022F084EC6C
:1009500017F020C024F021C025F022C026F038EC8A
:100960000CF024C060F025C061F026C062F0E3EC1A
:100970000DF060C01CF161C01DF162C01EF136C0F7
:1009800063F037C064F038C065F0EAC060F0EBC0D7
:1009900061F0ECC062F0E3EC0DF060C024F061C0E7
:1009A00025F062C026F01CC127F01DC128F01EC131
:1009B00029F038EC0CF024C0E3F025C0E4F026C0A8
:1009C000E5F004C124F005C125F006C126F0E3C01E
:1009D00027F0E4C028F0E5C029F038EC0CF024C082
:1009E00004F125C005F126C006F1010E5CEC17F0FC
:1009F0000001E62B85D604C175F005C176F006C16D
:100A000077F0000E0001786FC80E0001796F420E7A
:100A100000017A6F8CEC0EF075C0E3F076C0E4F064
:100A200077C0E5F01200D3EC14F01AC025F11BC01A
:100A300026F1A5EC15F01AC01FF11BC020F15FECE8
:100A400015F01AC021F11BC022F119EC15F01AC0E3
:100A500023F11BC024F143C1C1F044C1C2F045C120
:100A6000C3F046C1C4F00001C11FC21FC31FC41F91
:100A7000C12B000EC223C323C4230001D3510001A4
:100A8000C125206E0001D4510001C221216E000158
:100A9000D5510001C321226E0001D6510001C421AD
:100AA000236E94EC16F020C075F021C076F022C0C1
:100AB00077F0000E0001786F7A0E0001796F440E16
:100AC00000017A6F8CEC0EF075C000F176C001F178
:100AD00077C002F1D3C043F1D4C044F1D5C045F191
:100AE000D6C046F1000E0001786F030E0001796F49
:100AF000430E00017A6F00C163F001C164F002C1CE
:100B000065F025C120F026C121F013EC17F020C0BC
:100B100060F021C061F022C062F0E3EC0DF060C033
:100B200075F061C076F062C077F08CEC0EF075C0A5
:100B300024F076C025F077C026F0DDC027F0DEC0B7
:100B400028F0DFC029F038EC0CF024C036F025C0C6
:100B500037F026C038F023C120F024C121F013EC77
:100B600017F020C007F121C008F122C009F121C10E
:100B700020F022C121F013EC17F020C00AF121C0AF
:100B80000BF122C00CF1000E0001906F000E00016D
:100B9000916F400E0001926F07C18DF008C18EF079
:100BA00009C18FF00EEC0DF08DC00DF18EC00EF16D
:100BB0008FC00FF1000E0001906F000E0001916FC9
:100BC000400E0001926F0AC18DF00BC18EF00CC176
:100BD0008FF00EEC0DF08DC010F18EC011F18FC0B2
:100BE00012F10DC127F00EC128F00FC129F010C17C
:100BF00024F011C125F012C126F038EC0CF024C00D
:100C000013F125C014F126C015F113C19EF014C1D3
:100C10009FF015C1A0F05AEC0BF09EC078F09FC079
:100C200079F0A0C07AF01FC120F020C121F013ECB0
:100C300017F020C075F021C076F022C077F08CEC60
:100C40000EF075C016F176C017F177C018F116C115
:100C5000B1F017C1B2F018C1B3F064EC0AF0B1C042
:100C600019F1B2C01AF1B3C01BF119C160F01AC179
:100C700061F01BC162F0770EF66E060EF76E09008A
:100C8000F5CF63F00900F5CF64F00A00F5CF65F009
:100C9000E3EC0DF060C0DAF061C0DBF062C0DCF0C4
:100CA000DAC063F0DBC064F0DCC065F0000E276ED4
:100CB000800E286E3F0E296EEAC020F0EBC021F0B6
:100CC000ECC022F084EC17F020C024F021C025F005
:100CD00022C026F038EC0CF024C060F025C061F092
:100CE00026C062F0E3EC0DF060C01CF161C01DF1A4
:100CF00062C01EF136C063F037C064F038C065F0E2
:100D0000EAC060F0EBC061F0ECC062F0E3EC0DF023
:100D100060C024F061C025F062C026F01CC127F03D
:100D20001DC128F01EC129F038EC0CF024C0DDF004
:100D300025C0DEF026C0DFF01200DDC020F0DEC0EE
:100D400021F0DFC022F084EC17F020C024F021C095
:100D500025F022C026F0E3C027F0E4C028F0E5C06B
:100D600029F038EC0CF024C0E0F025C0E1F026C0FA
:100D7000E2F044C060F045C061F046C062F0E0C0FF
:100D800063F0E1C064F0E2C065F0E3EC0DF060C038
:100D900081F061C082F062C083F0D7C024F0D8C077
:100DA00025F0D9C026F0E0C027F0E1C028F0E2C06D
:100DB00029F038EC0CF024C0D7F025C0D8F026C0BC
:100DC000D9F0D7C06CF0D8C06DF0D9C06EF0000E6D
:100DD00000016F6FA00E0001706FC10E0001716FF6
:100DE000BAEC12F00001D8A02BD0000E00016C6FFD
:100DF000A00E00016D6F410E00016E6FD7C06FF045
:100E0000D8C070F0D9C071F0BAEC12F00001D8A0CF
:100E100007D0D7C078F0D8C079F0D9C07AF009D01F
:100E2000000E0001786FA00E0001796F410E0001E5
:100E30007A6F78C075F079C076F07AC077F009D013
:100E4000000E0001756FA00E0001766FC10E00014B
:100E5000776F75C060F076C061F077C062F041C016
:100E600063F042C064F043C065F0E3EC0DF060C095
:100E700084F061C085F062C086F0E0C027F0E1C078
:100E800028F0E2C029F033C020F034C021F035C092
:100E900022F084EC17F020C024F021C025F022C0FD
:100EA00026F038EC0CF024C060F025C061F026C0BC
:100EB00062F03EC063F03FC064F040C065F0E3EC18
:100EC0000DF060C087F061C088F062C089F0E0C0BA
:100ED00033F0E1C034F0E2C035F084C027F085C0C3
:100EE00028F086C029F081C024F082C025F083C09C
:100EF00026F038EC0CF024C08AF025C08BF026C018
:100F00008CF0E7C063F0E8C064F0E9C065F087C02A
:100F100027F088C028F089C029F08AC024F08BC04F
:100F200025F08CC026F038EC0CF024C060F025C011
:100F300061F026C062F0E3EC0DF060C06CF061C0BF
:100F40006DF062C06EF0000E00016F6F7F0E000149
:100F5000706FC30E0001716FBAEC12F00001D8A0DF
:100F60008BD084C027F085C028F086C029F081C0CE
:100F700024F082C025F083C026F038EC0CF024C0A9
:100F80008AF025C08BF026C08CF0000E00016C6F3B
:100F90007F0E00016D6F430E00016E6FE7C063F0BE
:100FA000E8C064F0E9C065F087C027F088C028F089
:100FB00089C029F08AC024F08BC025F08CC026F0AF
:100FC00038EC0CF024C060F025C061F026C062F05F
:100FD000E3EC0DF060C06FF061C070F062C071F0C2
:100FE000BAEC12F00001D8A037D084C027F085C039
:100FF00028F086C029F081C024F082C025F083C08B
:1010000026F038EC0CF024C08AF025C08BF026C006
:101010008CF087C027F088C028F089C029F08AC0EA
:1010200024F08BC025F08CC026F038EC0CF024C0E6
:1010300060F025C061F026C062F0E7C063F0E8C050
:1010400064F0E9C065F0E3EC0DF060C07EF061C0D3
:101050007FF062C080F009D0000E00017E6F7F0E2D
:1010600000017F6F430E0001806F7EC07BF07FC068
:101070007CF080C07DF009D0000E00017B6F7F0EF8
:1010800000017C6FC30E00017D6F7BC018F07CC037
:1010900019F07DC01AF06AEC11F018C039F019C0CF
:1010A0003AF01200000184510001851100018611FF
:1010B000D8A40AD0000E0001846F800E0001856F55
:1010C0003F0E0001866F1200720E00016C6F310E30
:1010D00000016D6F440E00016E6F84C06FF085C01B
:1010E00070F086C071F0BAEC12F00001D8B00ED0EA
:1010F000000E3C6E220E3B6EFF0E0001846F7F0ED1
:101100000001856F7F0E0001866F120084C06CF0B5
:1011100085C06DF086C06EF0490E00016F6F3A0E0B
:101120000001706FC40E0001716FBAEC12F0000183
:10113000D8B00ED0000E3C6E220E3B6E000E0001A9
:10114000846F000E0001856F000E0001866F120093
:10115000000186AF02D0010E01D0000E00018C6F9D
:1011600000018C510001D8B40ED084C020F085C09D
:1011700021F086C022F084EC17F020C084F021C05A
:1011800085F022C086F084C060F085C061F086C022
:1011900062F0AA0E0001636FB80E0001646F3F0E8B
:1011A0000001656FE3EC0DF060C084F061C085F074
:1011B00062C086F084C075F085C076F086C077F096
:1011C000F0EC10F075C087F076C088F077C089F039
:1011D00087C018F088C019F089C01AF06AEC11F0C5
:1011E00018C08AF019C08BF084C060F085C061F02F
:1011F00086C062F08AC020F08BC021F013EC17F09B
:1012000020C063F021C064F022C065F0EDEC16F060
:1012100060C084F061C085F062C086F084C06CF06C
:1012200085C06DF086C06EF07A0E00016F6F060EFD
:101230000001706F000E0001726F090E716FE4EC17
:1012400011F06CC078F06DC079F06EC07AF08AC091
:101250007BF08BC07CF066EC10F078C084F079C035
:1012600085F07AC086F000018C510001D8B42ED0F0
:101270000001842913E17F0E000185190FE17F0E23
:1012800000018619D8A40AD0000E0001846F000E58
:101290000001856F000E0001866F1200000E000134
:1012A000756F800E0001766F3F0E0001776F84C06E
:1012B00078F085C079F086C07AF08CEC0EF075C0BD
:1012C00084F076C085F077C086F0120084C084F088
:1012D00085C085F086C086F0120096EC17F0BFEC52
:1012E00017F0C8EC17F0000E0001E66F030E0001C6
:1012F000E66501D006D0FA0E5CEC17F00001E62B93
:10130000F5D735EC14F0010E6EEC03F0000E000181
:10131000D36F000ED46F000ED56F000ED66FE00EA7
:10132000D76EC00ED66EF28E000E6EEC03F09DEC02
:1013300006F0000E00016C6F000E00016D6F000ED4
:1013400000016E6FE3C027F0E4C028F0E5C029F08B
:10135000DDC020F0DEC021F0DFC022F084EC17F009
:1013600020C024F021C025F022C026F038EC0CF07B
:1013700024C06FF025C070F026C071F0BAEC12F0F6
:101380000001D8A02BD0E3C027F0E4C028F0E5C0CE
:1013900029F0DDC020F0DEC021F0DFC022F084ECB7
:1013A00017F020C024F021C025F022C026F038EC30
:1013B0000CF024C0CDF025C0CEF026C0CFF0CDC0BB
:1013C00020F0CEC021F0CFC022F084EC17F020C076
:1013D000D0F021C0D1F022C0D2F01CD0DDC020F06E
:1013E000DEC021F0DFC022F084EC17F020C024F032
:1013F00021C025F022C026F0E3C027F0E4C028F089
:10140000E5C029F038EC0CF024C0D0F025C0D1F0B4
:1014100026C0D2F0D0C06CF0D1C06DF0D2C06EF05A
:10142000000E00016F6FA00E0001706F410E0001F1
:10143000716FBAEC12F00001D8B007D039C080F05B
:101440003AC081F081EC13F007D0000E0001816FEB
:10145000000E806F81EC13F03BC1C5F03CC1C6F0BB
:101460003DC1C7F03EC1C8F00001C51FC61FC71F60
:10147000C81FC52B000EC623C723C8230001D351A4
:101480000001C5250001C96F0001D4510001C6212A
:101490000001CA6F0001D5510001C7210001CB6FC7
:1014A0000001D6510001C8210001CC6F0001CC51D0
:1014B0000001CB110001CA1106E1140E0001C95D43
:1014C000D8B032D7C9D730D7B1C023F0B2C024F0DA
:1014D000B3C025F02FEC17F023C0BEF024C0BFF03E
:1014E00025C0C0F00001BE510001BF110001C011B4
:1014F000D8A40AD0000E0001B16F000E0001B26F37
:10150000000E0001B36F1200000E00016C6F800E20
:1015100000016D6F3F0E00016E6FBEC06FF0BFC067
:1015200070F0C0C071F0BAEC12F00001D8B002D077
:10153000010E01D0000E0001BA6F0001BA51D8B4FB
:1015400017D0000E0001756F800E0001766F3F0E00
:101550000001776FBEC078F0BFC079F0C0C07AF0EC
:101560008CEC0EF075C0BEF076C0BFF077C0C0F056
:10157000BEC060F0BFC061F0C0C062F0BEC063F02A
:10158000BFC064F0C0C065F0E3EC0DF060C0BBF01C
:1015900061C0BCF062C0BDF0BBC06CF0BCC06DF0FF
:1015A000BDC06EF0C50E00016F6F060E0001706FBA
:1015B000000E0001726F040E716FE4EC11F06CC04C
:1015C000B4F06DC0B5F06EC0B6F0BBC06CF0BCC07E
:1015D0006DF0BDC06EF0B30E00016F6F060E00011E
:1015E000706F000E0001726F050E716FE4EC11F068
:1015F0006CC0B7F06DC0B8F06EC0B9F0BEC060F09E
:10160000BFC061F0C0C062F0B4C078F0B5C079F07E
:10161000B6C07AF0B7C075F0B8C076F0B9C077F050
:101620008CEC0EF075C063F076C064F077C065F0A6
:10163000E3EC0DF060C0BEF061C0BFF062C0C0F06E
:101640000001BA510001D8B41CD0BEC020F0BFC008
:1016500021F0C0C022F084EC17F020C024F021C09B
:1016600025F022C026F0100E276EC90E286E3F0E00
:10167000296E38EC0CF024C0BEF025C0BFF026C0A7
:10168000C0F00001B3BF07D0BEC0B1F0BFC0B2F020
:10169000C0C0B3F01200BEC020F0BFC021F0C0C077
:1016A00022F084EC17F020C0B1F021C0B2F022C0CB
:1016B000B3F01200000E00016C6F000E00016D6FA0
:1016C000000E00016E6F9EC06FF09FC070F0A0C052
:1016D00071F0BAEC12F00001D8A011D00001A0AF57
:1016E00004D0000E3C6E210E3B6E000E00019E6F7A
:1016F000000E00019F6F000E0001A06F12009EC03F
:10170000A7F09FC0A8F0A0C0A9F09EC0A1F09FC004
:10171000A2F0A0C0A3F00001A11FA21FA31FA12B34
:10172000000EA223A323C80E0001A1250001AE6F65
:101730006E0E0001A2210001AF6FBE0E0001A321B9
:101740000001B06F0001D890B033AF33AE33000E5C
:101750000001A75F800E0001A85B000E0001A95BDD
:10176000040E0001AA6FAEC0A4F0AFC0A5F0B0C0D7
:10177000A6F0AEC060F0AFC061F0B0C062F0A7C02C
:1017800063F0A8C064F0A9C065F0E3EC0DF060C0A0
:10179000ABF061C0ACF062C0ADF0ABC060F0ACC00B
:1017A00061F0ADC062F0AEC063F0AFC064F0B0C035
:1017B00065F0E3EC0DF060C0ABF061C0ACF062C06E
:1017C000ADF0ABC060F0ACC061F0ADC062F0AEC0D7
:1017D00063F0AFC064F0B0C065F0E3EC0DF060C042
:1017E000ABF061C0ACF062C0ADF0AEC060F0AFC0B5
:1017F00061F0B0C062F0000E0001636FC00E000126
:10180000646F3F0E0001656FE3EC0DF060C0AEF059
:1018100061C0AFF062C0B0F0AEC060F0AFC061F0C8
:10182000B0C062F0ABC063F0ACC064F0ADC065F0B6
:10183000EDEC16F060C0AEF061C0AFF062C0B0F089
:101840000001AA2F90D7AEC060F0AFC061F0B0C069
:1018500062F09EC063F09FC064F0A0C065F0E3EC4E
:101860000DF060C09EF061C09FF062C0A0F0120059
:1018700026C02AF02B6A2C6A25342A3601E32B80F5
:101880002A502F6E29C02AF02B6A2C6A28342A3657
:1018900001E32B802A502E6E2F50D8B40BD02E503F
:1018A0002F5CD8B00ED02F5000082E242A6E180EB0
:1018B0002A6407D027C024F028C025F029C026F0CC
:1018C00012002E50D8B40BD02F502E5CD8B00ED0B2
:1018D0002E5000082F242A6E180E2A6407D024C028
:1018E00024F025C025F026C026F01200060E2D6E2D
:1018F00026BE2D8E29BE2D8C258EFF0E2416FF0EA2
:101900002516000E2616288EFF0E2716FF0E281607
:10191000000E29162E502F5CD8B01BD0D890273639
:10192000283629362E062F502E18D8B40DD02D0665
:101930002DC02AF0070E2A16D8B406D0EFD7D890BB
:101940002632253224322F2A2E502F18D8B41FD0F9
:10195000F6D72F502E5CD8B01AD0D8902436253622
:1019600026362F062F502E18D8B40DD02D062DC098
:101970002AF0070E2A16D8B406D0EFD7D89029320D
:10198000283227322E2A2E502F18D8A4F7D72DAE62
:101990000CD0FF0E241AFF0E251AFF0E261A010E78
:1019A0002426000E2522000E26222DAC0CD0FF0E80
:1019B000271AFF0E281AFF0E291A010E2726000EDD
:1019C0002822000E2922000E2D6E24502726255095
:1019D00028222650292229AE0ED0FF0E271AFF0EEC
:1019E000281AFF0E291A010E2726000E2822000EA3
:1019F0002922010E2D6E27C018F028C019F029C029
:101A00001AF02FC01BF02DC01CF0DEEC13F018C034
:101A100024F019C025F01AC026F01200000E0001B3
:101A2000996F00018D5100018E1100018F11D8A412
:101A300022D0000E00016C6F000E00016D6F000ED1
:101A400000016E6F90C06FF091C070F092C071F0A5
:101A5000BAEC12F00001D8A004D0000E3C6E210EAA
:101A60003B6E000E00018D6F000E00018E6F000EA8
:101A700000018F6F120000019051000191110001CF
:101A80009211D8A40AD0000E00018D6F800E0001C3
:101A90008E6F3F0E00018F6F120000018FAF48D094
:101AA00090C018F091C019F092C01AF06AEC11F0D1
:101AB00018C09AF019C09BF01AC09CF01BC09DF092
:101AC0009AC020F09BC021F09CC022F09DC023F062
:101AD00094EC16F000019051201809E10001915199
:101AE000211805E1000192512218D8B40ED0000E41
:101AF0003C6E210E3B6E000E00018D6F000E00014A
:101B00008E6F000E00018F6F120000019A51010BC1
:101B10000001996F8DC020F08EC021F08FC022F09F
:101B200084EC17F020C08DF021C08EF022C08FF021
:101B30008DC078F08EC079F08FC07AF032EC0FF063
:101B400078C093F079C094F07AC095F093C060F0BB
:101B500094C061F095C062F090C063F091C064F0F1
:101B600092C065F0E3EC0DF060C096F061C097F0B4
:101B700062C098F096C084F097C085F098C086F057
:101B800052EC08F084C08DF085C08EF086C08FF0D6
:101B9000000199510001D8B40FD08DC020F08EC043
:101BA00021F08FC022F084EC17F020C08DF021C00E
:101BB0008EF022C08FF012008DC08DF08EC08EF09E
:101BC0008FC08FF0120062C030F0316A326A0001BB
:101BD0006135303601E3318030500001666F00011D
:101BE0006651D8A40AD0000E0001606F000E0001FB
:101BF000616F000E0001626F120065C030F0316A43
:101C0000326A00016435303601E331803050000122
:101C10006B6F00016B51D8A40AD0000E0001606FF9
:101C2000000E0001616F000E0001626F12000001E2
:101C30006B517B0F0001662762C06BF0000165519C
:101C400000016B1B800E00016B170001618F00010A
:101C5000648FFF0E00016317FF0E00016417000E72
:101C600000016517000E0001676F000E0001686F2C
:101C7000000E0001696F070E00016A6F000160A18C
:101C80000CD000016351000167270001645100017D
:101C9000682300016551000169230001D890623377
:101CA000613360330001D8906337643765370001D2
:101CB0006A2FE4D7090E00016A6F000160A10CD001
:101CC000000163510001672700016451000168238E
:101CD00000016551000169230001D890623361332E
:101CE00060330001D89069336833673300016A2F8D
:101CF000E4D767C018F068C019F069C01AF066C070
:101D00001BF06BC01CF0DEEC13F018C060F019C0C3
:101D100061F01AC062F0120077C07BF000017C6BAA
:101D20007D6B0001763500017B3701E37C8100018A
:101D30007B510001826F00018251D8A40AD0000EAD
:101D40000001756F000E0001766F000E0001776FC5
:101D500012007AC07BF000017C6B7D6B000179354D
:101D600000017B3701E37C8100017B510001836F1F
:101D700000018351D8A40AD0000E0001756F000E37
:101D80000001766F000E0001776F1200000E000157
:101D90007F6F000E0001806F000E0001816F000157
:101DA0008351890F0001825F77C083F000017A516F
:101DB0000001831B800E000183170001768FFF0E48
:101DC00000017517FF0E00017617000E000177174E
:101DD0000001798FFF0E00017817FF0E00017917BF
:101DE000000E00017A17180E00017E6F0001D890D6
:101DF0007F3780378137000178510001755D000120
:101E000079510001765900017A5100017759D8A023
:101E10000ED0000178510001755F00017951000179
:101E2000765B00017A510001775B00017F81000140
:101E3000D89075377637773700017E2FD7D77FC098
:101E400018F080C019F081C01AF082C01BF083C066
:101E50001CF0DEEC13F018C075F019C076F01AC053
:101E600077F0120000017AAF0ED0000E3C6E210E0A
:101E70003B6E000E0001786F000E0001796F000EBE
:101E800000017A6F12000001785100017911000100
:101E90007A11D8A40ED0000E3C6E220E3B6E000EBE
:101EA0000001786F000E0001796F000E00017A6F5B
:101EB0001200000E0001636F000E0001646F400EFF
:101EC0000001656F7B0E1B6E000E1C6E78C018F053
:101ED00079C019F07AC01AF08BEC14F018C060F0D9
:101EE00019C061F01AC062F0E3EC0DF060C024F09C
:101EF00061C025F062C026F0000E276E800E286EAD
:101F0000BF0E296E38EC0CF024C078F025C079F0B3
:101F100026C07AF000017B07D8A07C0778C06CF05F
:101F200079C06DF07AC06EF0980E00016F6F060EEA
:101F30000001706F000E0001726F080E716FE4EC0B
:101F400011F06CC078F06DC079F06EC07AF0720E4E
:101F50000001636F310E0001646F3F0E0001656F79
:101F60007BC020F07CC021F013EC17F020C060F0A3
:101F700021C061F022C062F0E3EC0DF060C024F0FB
:101F800061C025F062C026F078C027F079C028F043
:101F90007AC029F038EC0CF024C078F025C079F034
:101FA00026C07AF0120064C074F065C075F066C097
:101FB00076F067C077F00001741F751F761F771FDA
:101FC000742B000E752376237723000160510001E6
:101FD0007425186E0001615100017521196E000110
:101FE0006251000176211A6E0001635100017721D0
:101FF0001B6E6CC078F06DC079F06EC07AF06FC067
:102000007BF00001781F791F7A1F7B1F782B000E51
:1020100079237A237B2300017051000178251C6EFF
:1020200000017151000179211D6E00017251000102
:102030007A211E6E0001735100017B211F6EC2ECDC
:1020400016F018C024F019C025F01AC026F01BC0E5
:1020500027F064C07CF065C07DF066C07EF067C08C
:102060007FF000017C1F7D1F7E1F7F1F7C2B000ED9
:102070007D237E237F230001685100017C25286E8B
:102080000001695100017D21296E00016A510001A2
:102090007E212A6E00016B5100017F212B6E54ECD2
:1020A00012F000016C5124240001606F00016D5199
:1020B00025200001616F00016E5126200001626F32
:1020C00000016F5127200001636F12000001785159
:1020D0000001791100017A11D8A40AD0000E000184
:1020E000786F000E0001796F000E00017A6F120008
:1020F00000017A517F0B00017D6F7E6BD89000014B
:102100007D377E3700017D5100017B2700017E5124
:1021100000017C23000179AF04D000017D6B7D2B91
:1021200002D000017D6B00017D5100017B27000E74
:102130007C2300017CAF0ED0000E3C6E220E3B6E65
:10214000000E0001786F000E0001796F000E000193
:102150007A6F120000017CBF1BD000017C05D8A063
:1021600017D0000E3C6E220E3B6E00017AAF08D0F5
:10217000FF0E0001786F7F0E0001796FFF0EE7D729
:10218000FF0E0001786F7F0E0001796F7F0EDFD7A1
:1021900000017C357C3100017E6F00017B31000144
:1021A0007D6F00017A5100017D19800B7D190001BE
:1021B0007A6F7BC07DF0010E00017D1700017D3339
:1021C0007D330001795100017D197F0B7D190001DC
:1021D000796F78C078F079C079F07AC07AF012001F
:1021E00075C018F076C019F077C01AF07B0E1B6E20
:1021F000000E1C6E8BEC14F000017CAF17D00001B8
:1022000077AF0AD0000E0001756F800E0001766F67
:10221000BF0E0001776F1200000E0001756F000EF7
:102220000001766F000E0001776F120000017C51F3
:1022300005E1150E00017B5DD8A007D075C075F0D3
:1022400076C076F077C077F0120075C018F076C0CF
:1022500019F077C01AF06AEC11F018C027F019C015
:1022600028F01AC029F01BC02AF0EBEC15F027C0AB
:1022700078F028C079F029C07AF075C06CF076C08B
:102280006DF077C06EF078C06FF079C070F07AC0F2
:1022900071F0BAEC12F00001D8B015D078C024F07B
:1022A00079C025F07AC026F0000E276E800E286EC9
:1022B000BF0E296E38EC0CF024C075F025C076F006
:1022C00026C077F0120078C075F079C076F07AC039
:1022D00077F012001AC01CF01D6A1E6A19341C36F1
:1022E00001E31D801C50266E2650D8A409D0000E94
:1022F000186E000E196E000E1A6E000E1B6E120084
:10230000170E1C6E18C01DF019C01EF01AC01FF069
:102310001C28206E04D0D8901F321E321D32202E71
:10232000FAD71D50216E198EFF0E1816FF0E1916C2
:10233000000E1A161850226E1950236E1A50246E71
:10234000256A8E0E265E26AE16D02650800A8F0F86
:10235000D8B009D0000E186E000E196E000E1A6E5D
:10236000000E1B6E1200D890253224322332223206
:10237000263EF9D715D0170E26640FD0000E186E22
:10238000000E196E000E1A6E000E1B6E1200D89011
:10239000223623362436253626062650D8A4F7D7EB
:1023A0002150D8B408D0251E241E231E226C000EF6
:1023B00023222422252222C018F023C019F024C091
:1023C0001AF025C01BF0120071C018F072C019F08D
:1023D000000E1B6E030E1A6E71EC17F06FC073F0D7
:1023E00070C074F018500001732719500001742355
:1023F00073C0F6FF74C0F7FF0900F5CF75F0090050
:10240000F5CF76F00A00F5CF77F041D075C063F0D4
:1024100076C064F077C065F06CC060F06DC061F0AC
:102420006EC062F0E3EC0DF060C024F061C025F0F6
:1024300062C026F0000E1B6E030E1A6E00017107BB
:10244000D8A0720771C018F072C019F071EC17F0C3
:102450006FC073F070C074F01850000173271950EA
:102460000001742373C0F6FF74C0F7FF0900F5CFB5
:1024700027F00900F5CF28F00A00F5CF29F038EC55
:102480000CF024C075F025C076F026C077F000016E
:10249000715100017211D8A4B9D775C06CF076C023
:1024A0006DF077C06EF01200000E2D6E2BAE0AD0CC
:1024B0002B1E2A1E291E286C000E29222A222B22BE
:1024C000010E2D6E27AE0AD0271E261E251E246C57
:1024D000000E252226222722010E2D1A000E2E6E16
:1024E000000E2F6E000E306E000E316E2850291037
:1024F0002A102B10D8B42AD0010E2C6E06D0D890FA
:10250000283629362A362B362C2A2BAEF8D7D890E7
:102510002E362F36303631362850245C2950255837
:102520002A5026582B502758D8A009D02850245E6E
:102530002950255A2A50265A2B50275A2E80D89097
:102540002B322A32293228322C2EE1D72D50D8B402
:1025500008D0311E301E2F1E2E6C000E2F2230226E
:1025600031222EC024F02FC025F030C026F031C01B
:1025700027F0120000016EAF1DD06CC072F06DC06C
:1025800073F06EC074F00001721F731F741F722B02
:10259000000E73237423000E0001722500016C6F7E
:1025A000000E0001732100016D6F800E0001742187
:1025B00000016E6F000171AF1DD06FC072F070C06E
:1025C00073F071C074F00001721F731F741F722BBF
:1025D000000E73237423000E0001722500016F6F3B
:1025E000000E000173210001706F800E0001742144
:1025F0000001716F000E00016C1B000E00016D1BCD
:10260000800E00016E1B000E00016F1B000E00010A
:10261000701B800E0001711B00016F5100016C5D89
:102620000001705100016D590001715100016E5996
:10263000D8B002D0D8901200D88012000600E9CF9E
:102640000CF0EACF0DF0E1CF0EF0E2CF0FF0D9CFD2
:1026500010F0DACF11F0F3CF12F0F4CF13F0F6CF81
:1026600014F0F7CF15F0F8CF16F0F5CF17F0F2BA57
:10267000F2A429D0E00ED76EC00ED66EF294010EF1
:102680000001D327000ED423D523D623D3C001F0D5
:10269000D4C002F0D5C003F0D6C004F0640E056EBD
:1026A000000E066E000E076E000E086E61EC16F04E
:1026B0000150021003100410D8A405D080B002D03D
:1026C000808001D0809017C0F5FF16C0F8FF15C0BC
:1026D000F7FF14C0F6FF13C0F4FF12C0F3FF11C0E0
:1026E000DAFF10C0D9FF0FC0E2FF0EC0E1FF0DC03E
:1026F000EAFF0CC0E9FF0BC0FBFF0AC0FAFF4892DB
:102700001100000181BF0BD00001815104E10001E3
:102710008005D8A004D08194818681981AD00001C8
:1027200081AF14D0818481968188819A000181BF14
:1027300007D0000181510EE100018005D8B00AD018
:102740000001806D811FD8B0812B04D081848186E7
:102750008188818A80C060F081C061F00001000E34
:1027600061BFFF0E626F636F000E0001646F000EA9
:10277000656F000E666F000E676FFF0E0001686FD9
:10278000000E696F000E6A6F000E6B6F1E0E000167
:102790006C6F000E6D6F000E6E6F000E6F6FFF0E90
:1027A0000001706F000E716F000E726F000E736F7C
:1027B000D3EC0FF000016051BE6E12001B50D8B474
:1027C00005D0185019101A10D8A40CD0000E186E8D
:1027D000000E196E000E1A6E12001B2AD8901A32C3
:1027E00019321832000E18141D6E000E19141E6EC8
:1027F000FE0E1A141F6E1D501E101F10D8B40CD0E0
:10280000ECD71B2A010E1826000E1922000E1A22E0
:10281000D8901A3219321832000E18141D6E000E9C
:1028200019141E6EFF0E1A141F6E1D501E101F105D
:10283000D8B406D0E6D71B06D890183619361A3603
:1028400019BE03D0020E1B60F6D71BA0199ED890AC
:102850001B321B501A121C50D8A41A8E18C018F024
:1028600019C019F01AC01AF01200B6EC17F0C580A2
:10287000C5B0FED7D00E47EC17F06B0E47EC17F043
:102880000B0E47EC17F0C584C5B4FED7B6EC17F0B5
:10289000C580C5B0FED7D00E47EC17F01A0E47EC36
:1028A00017F0050E47EC17F0C584C5B4FED7B6EC9B
:1028B00017F0C580C5B0FED7D00E47EC17F0190E43
:1028C00047EC17F0130E47EC17F0C584C5B4FED7DC
:1028D000B6EC17F0C580C5B0FED7D00E47EC17F0A8
:1028E0001B0E47EC17F0000E47EC17F0C584C5B47B
:1028F000FED7B6EC17F0C580C5B0FED7D00E47ECBA
:1029000017F01C0E47EC17F0000E47EC17F0C584CB
:10291000C5A41200FDD7185019101A10D8A40FD052
:102920001BC0D9FF1CC0DAFF000EDE6E000EDD6E8C
:10293000000E186E000E196E000E1A6E12001A505C
:102940007F0B1D6E1E6AD8901D361E361BC0D9FF28
:102950001CC0DAFF1DC0DEFF1EC0DDFF19AE03D0B4
:102960001D6A1D2A01D01D6A1D501BC0D9FF1CC045
:10297000DAFFDE12000EDD121BC0D9FF1CC0DAFF29
:10298000820EDE26FF0EDD221A801A821A841A8633
:102990001A881A8A1A9C199E18C018F019C019F0C2
:1029A0001AC01AF01200C580C5B0FED7D00E47EC91
:1029B00017F0450E47EC17F0C582C5B2FED7D10E11
:1029C00047EC17F0A8EC17F01C6E1C501E6E1F6A27
:1029D000C58AC588C5B8FED7C584C5B4FED7C5802D
:1029E000C5B0FED7D00E47EC17F0460E47EC17F0F7
:1029F000C582C5B2FED7D10E47EC17F0A8EC17F090
:102A00001C6E1C50206E216AC58AC588C5B8FED7C9
:102A1000C584C5B4FED71E501D6E1C6A20501C1004
:102A2000226E21501D10236E22C01AF023C01BF00D
:102A30001200C580C5B0FED7D00E47EC17F03F0E90
:102A400047EC17F0C582C5B2FED7D10E47EC17F0A0
:102A5000A8EC17F01C6E1C501E6E1F6AC58AC58834
:102A6000C5B8FED7C584C5B4FED7C580C5B0FED7EE
:102A7000D00E47EC17F0400E47EC17F0C582C5B2F8
:102A8000FED7D10E47EC17F0A8EC17F01C6E1C50C7
:102A9000206E216AC58AC588C5B8FED7C584C5B46D
:102AA000FED71E501D6E1C6A20501C10226E215035
:102AB0001D10236E22C01AF023C01BF01200C58027
:102AC000C5B0FED7D00E47EC17F03D0E47EC17F01F
:102AD000C582C5B2FED7D10E47EC17F0A8EC17F0AF
:102AE0001C6E1C501E6E1F6AC58AC588C5B8FED7ED
:102AF000C584C5B4FED7C580C5B0FED7D00E47EC9F
:102B000017F03E0E47EC17F0C582C5B2FED7D10EC6
:102B100047EC17F0A8EC17F01C6E1C50206E216AD1
:102B2000C58AC588C5B8FED7C584C5B4FED71E50B2
:102B30001D6E1C6A20501C10226E21501D10236E29
:102B400022C01AF023C01BF01200C580C5B0FED70A
:102B5000D00E47EC17F03B0E47EC17F0C582C5B21C
:102B6000FED7D10E47EC17F0A8EC17F01C6E1C50E6
:102B70001E6E1F6AC58AC588C5B8FED7C584C5B490
:102B8000FED7C580C5B0FED7D00E47EC17F03C0E7F
:102B900047EC17F0C582C5B2FED7D10E47EC17F04F
:102BA000A8EC17F01C6E1C50206E216AC58AC588DF
:102BB000C5B8FED7C584C5B4FED71E501D6E1C6AAD
:102BC00020501C10226E21501D10236E22C01AF0BE
:102BD00023C01BF01200000E306E8E0E2F6E2AAE38
:102BE00011D02A1E291E281E276C000E28222922F9
:102BF0002A22010E306E06D0D8902A32293228328D
:102C000027322F2A000E27142B6E000E28142C6E4C
:102C1000000E29142D6EFF0E2A142E6E2B502C1030
:102C20002D102E10D8A4E8D727C018F028C019F00E
:102C300029C01AF02FC01BF030C01CF0DEEC13F0DE
:102C400018C027F019C028F01AC029F01200A50EEC
:102C5000F66E2F0EF76E000EF86E00EEE7F010EE37
:102C600006F00900F5CFEEFFE550E150FAE19C0EC9
:102C7000F66E2F0EF76E000EF86E00EE3EF010EEC0
:102C800009F00900F5CFEEFFE550E150FAE101EE61
:102C900027F0230EEE6AE806FDE100EED3F0140EF5
:102CA000EE6AE806FDE1476A00EE33F00B0EEE6ACD
:102CB000E806FDE148904892000EF86E00016DEFC5
:102CC00009F00550061007100810D8B424D0010EE2
:102CD000096E06D0D8900536063607360836092A1A
:102CE00008AEF8D70550015C06500258075003584B
:102CF00008500458D8A008D00550015E0650025A6A
:102D00000750035A0850045AD89008320732063246
:102D10000532092EE7D701C001F002C002F003C05E
:102D200003F004C004F012008E0E286E06D0D89076
:102D30002332223221322032282A000E2014246E1F
:102D4000000E2114256E000E2214266EFF0E231491
:102D5000276E2450251026102710D8A4E8D720C0AD
:102D600018F021C019F022C01AF028C01BF0000E84
:102D70001C6EDEEC13F018C020F019C021F01AC050
:102D800022F01200000E206E000E216E000E226E48
:102D9000000E236E18A008D01C5020261D502122A2
:102DA0001E5022221F502322D8901C361D361E365C
:102DB0001F36D8901B321A32193218321850191097
:102DC0001A101B10D8A4E6D720C018F021C019F0A3
:102DD00022C01AF023C01BF0120000016351000151
:102DE000641100016511D8B409D0000E0001631B05
:102DF000000E0001641B800E0001651B60C024F002
:102E000061C025F062C026F063C027F064C028F0DE
:102E100065C029F038EC0CF024C060F025C061F0EA
:102E200026C062F01200000E236E21AE06D0206C88
:102E3000211ED8B0212A010E236E20C018F021C017
:102E400019F01A6A8E0E1B6E23C01CF0DEEC13F014
:102E500018C020F019C021F01AC022F0120025AECF
:102E60000FD023C020F024C021F025C022F084EC34
:102E700017F020C023F021C024F022C025F012005A
:102E800023C023F024C024F025C025F01200196EC1
:102E900019C0C9FFC6BE1200C6500F0B080AD8B42D
:102EA00005D0C6500F0B0B0AD8A41200C7B0FED72E
:102EB000B6EC17F0C5501200186E0ED0040E196E45
:102EC00007D0770E1A6E02D000F000F01A2EFCD751
:102ED00019061928D8A4F5D718061828D8B412004E
:102EE000EDD718501A02F3CF1CF0F4CF1DF0185094
:102EF0001B02F3501D2619501A02F3501D261CC048
:102F000018F01DC019F01200205021102210D8B462
:102F100006D0000E201A000E211A800E221A20C0A0
:102F200020F021C021F022C022F01200700ED36EDA
:102F30009B8CFE0E926EC30E936EB90E946E880E2D
:102F4000D56E8090819481968198819AF28A120040
:102F5000C6500F0B080AD8B404D0C6500F0B0B0A8A
:102F6000D8B4C586C7A0FED7C9501200C5CF18F087
:102F70001F0E1816D8A4FAD7C7A41200F7D7280E28
:102F8000C66E000EC76E130EC86E000EC56E120020
:102F90000F0EBD6E040ECA6ECB68120000B0409AD0
:0B2FA000D93F331340CD9C409A593FAD
:020000040030CA
:08000000FF091F1EFF8001FF34
:00000001FF
